{
  "contractName": "BonfireFactory",
  "abi": [
    {
      "anonymous": false,
      "inputs": [
        {
          "indexed": true,
          "internalType": "address",
          "name": "user",
          "type": "address"
        },
        {
          "indexed": false,
          "internalType": "address",
          "name": "contractAddress",
          "type": "address"
        }
      ],
      "name": "ContractCreated",
      "type": "event"
    },
    {
      "inputs": [
        {
          "internalType": "address",
          "name": "",
          "type": "address"
        }
      ],
      "name": "userToContract",
      "outputs": [
        {
          "internalType": "address",
          "name": "",
          "type": "address"
        }
      ],
      "stateMutability": "view",
      "type": "function"
    },
    {
      "inputs": [],
      "name": "createContract",
      "outputs": [],
      "stateMutability": "nonpayable",
      "type": "function"
    },
    {
      "inputs": [
        {
          "internalType": "address",
          "name": "user",
          "type": "address"
        }
      ],
      "name": "getUserContract",
      "outputs": [
        {
          "internalType": "address",
          "name": "",
          "type": "address"
        }
      ],
      "stateMutability": "view",
      "type": "function"
    }
  ],
  "bytecode": "0x608060405234801561001057600080fd5b5061110a806100206000396000f3fe608060405234801561001057600080fd5b50600436106100415760003560e01c8063412a5a6d146100465780637e6c75f214610050578063f5bf191114610080575b600080fd5b61004e6100b0565b005b61006a6004803603810190610065919061038e565b610283565b60405161007791906103ca565b60405180910390f35b61009a6004803603810190610095919061038e565b6102eb565b6040516100a791906103ca565b60405180910390f35b600073ffffffffffffffffffffffffffffffffffffffff166000803373ffffffffffffffffffffffffffffffffffffffff1673ffffffffffffffffffffffffffffffffffffffff16815260200190815260200160002060009054906101000a900473ffffffffffffffffffffffffffffffffffffffff1673ffffffffffffffffffffffffffffffffffffffff161461017d576040517f08c379a000000000000000000000000000000000000000000000000000000000815260040161017490610442565b60405180910390fd5b60003360405161018c9061031e565b61019691906103ca565b604051809103906000f0801580156101b2573d6000803e3d6000fd5b509050806000803373ffffffffffffffffffffffffffffffffffffffff1673ffffffffffffffffffffffffffffffffffffffff16815260200190815260200160002060006101000a81548173ffffffffffffffffffffffffffffffffffffffff021916908373ffffffffffffffffffffffffffffffffffffffff1602179055503373ffffffffffffffffffffffffffffffffffffffff167f2d49c67975aadd2d389580b368cfff5b49965b0bd5da33c144922ce01e7a4d7b8260405161027891906103ca565b60405180910390a250565b60008060008373ffffffffffffffffffffffffffffffffffffffff1673ffffffffffffffffffffffffffffffffffffffff16815260200190815260200160002060009054906101000a900473ffffffffffffffffffffffffffffffffffffffff169050919050565b60006020528060005260406000206000915054906101000a900473ffffffffffffffffffffffffffffffffffffffff1681565b610c728061046383390190565b600080fd5b600073ffffffffffffffffffffffffffffffffffffffff82169050919050565b600061035b82610330565b9050919050565b61036b81610350565b811461037657600080fd5b50565b60008135905061038881610362565b92915050565b6000602082840312156103a4576103a361032b565b5b60006103b284828501610379565b91505092915050565b6103c481610350565b82525050565b60006020820190506103df60008301846103bb565b92915050565b600082825260208201905092915050565b7f436f6e747261637420616c726561647920637265617465640000000000000000600082015250565b600061042c6018836103e5565b9150610437826103f6565b602082019050919050565b6000602082019050818103600083015261045b8161041f565b905091905056fe608060405234801561001057600080fd5b50604051610c72380380610c72833981810160405281019061003291906100e3565b806000806101000a81548173ffffffffffffffffffffffffffffffffffffffff021916908373ffffffffffffffffffffffffffffffffffffffff160217905550600060038190555050610110565b600080fd5b600073ffffffffffffffffffffffffffffffffffffffff82169050919050565b60006100b082610085565b9050919050565b6100c0816100a5565b81146100cb57600080fd5b50565b6000815190506100dd816100b7565b92915050565b6000602082840312156100f9576100f8610080565b5b6000610107848285016100ce565b91505092915050565b610b538061011f6000396000f3fe608060405234801561001057600080fd5b50600436106100885760003560e01c80638d53b2081161005b5780638d53b208146101275780638da5cb5b14610143578063913a2ffe14610161578063b9ac69ea1461019157610088565b80633e1fd0da1461008d57806340554c3a146100bd578063694ba4d0146100d9578063704fe710146100f7575b600080fd5b6100a760048036038101906100a2919061072b565b6101c1565b6040516100b49190610786565b60405180910390f35b6100d760048036038101906100d2919061072b565b610229565b005b6100e161040a565b6040516100ee91906107ba565b60405180910390f35b610111600480360381019061010c9190610801565b610410565b60405161011e919061083d565b60405180910390f35b610141600480360381019061013c919061072b565b610434565b005b61014b6105d3565b6040516101589190610867565b60405180910390f35b61017b60048036038101906101769190610801565b6105f7565b604051610188919061083d565b60405180910390f35b6101ab60048036038101906101a6919061072b565b610663565b6040516101b89190610786565b60405180910390f35b60006001600084815260200190815260200160002060008373ffffffffffffffffffffffffffffffffffffffff1673ffffffffffffffffffffffffffffffffffffffff16815260200190815260200160002060009054906101000a900460ff16905092915050565b60008054906101000a900473ffffffffffffffffffffffffffffffffffffffff1673ffffffffffffffffffffffffffffffffffffffff163373ffffffffffffffffffffffffffffffffffffffff16146102b7576040517f08c379a00000000000000000000000000000000000000000000000000000000081526004016102ae90610905565b60405180910390fd5b600015156001600084815260200190815260200160002060008373ffffffffffffffffffffffffffffffffffffffff1673ffffffffffffffffffffffffffffffffffffffff16815260200190815260200160002060009054906101000a900460ff1615151461035b576040517f08c379a000000000000000000000000000000000000000000000000000000000815260040161035290610971565b60405180910390fd5b600180600084815260200190815260200160002060008373ffffffffffffffffffffffffffffffffffffffff1673ffffffffffffffffffffffffffffffffffffffff16815260200190815260200160002060006101000a81548160ff02191690831515021790555060028290806001815401808255809150506001900390600052602060002001600090919091909150556001600360008282546103ff91906109c0565b925050819055505050565b60035481565b6002818154811061042057600080fd5b906000526020600020016000915090505481565b60008054906101000a900473ffffffffffffffffffffffffffffffffffffffff1673ffffffffffffffffffffffffffffffffffffffff163373ffffffffffffffffffffffffffffffffffffffff16146104c2576040517f08c379a00000000000000000000000000000000000000000000000000000000081526004016104b990610905565b60405180910390fd5b600115156001600084815260200190815260200160002060008373ffffffffffffffffffffffffffffffffffffffff1673ffffffffffffffffffffffffffffffffffffffff16815260200190815260200160002060009054906101000a900460ff16151514610566576040517f08c379a000000000000000000000000000000000000000000000000000000000815260040161055d90610a62565b60405180910390fd5b60006001600084815260200190815260200160002060008373ffffffffffffffffffffffffffffffffffffffff1673ffffffffffffffffffffffffffffffffffffffff16815260200190815260200160002060006101000a81548160ff0219169083151502179055505050565b60008054906101000a900473ffffffffffffffffffffffffffffffffffffffff1681565b6000600354821061063d576040517f08c379a000000000000000000000000000000000000000000000000000000000815260040161063490610ace565b60405180910390fd5b6002828154811061065157610650610aee565b5b90600052602060002001549050919050565b60016020528160005260406000206020528060005260406000206000915091509054906101000a900460ff1681565b600080fd5b6000819050919050565b6106aa81610697565b81146106b557600080fd5b50565b6000813590506106c7816106a1565b92915050565b600073ffffffffffffffffffffffffffffffffffffffff82169050919050565b60006106f8826106cd565b9050919050565b610708816106ed565b811461071357600080fd5b50565b600081359050610725816106ff565b92915050565b6000806040838503121561074257610741610692565b5b6000610750858286016106b8565b925050602061076185828601610716565b9150509250929050565b60008115159050919050565b6107808161076b565b82525050565b600060208201905061079b6000830184610777565b92915050565b6000819050919050565b6107b4816107a1565b82525050565b60006020820190506107cf60008301846107ab565b92915050565b6107de816107a1565b81146107e957600080fd5b50565b6000813590506107fb816107d5565b92915050565b60006020828403121561081757610816610692565b5b6000610825848285016107ec565b91505092915050565b61083781610697565b82525050565b6000602082019050610852600083018461082e565b92915050565b610861816106ed565b82525050565b600060208201905061087c6000830184610858565b92915050565b600082825260208201905092915050565b7f4f6e6c7920746865206f776e65722063616e2063616c6c20746869732066756e60008201527f6374696f6e000000000000000000000000000000000000000000000000000000602082015250565b60006108ef602583610882565b91506108fa82610893565b604082019050919050565b6000602082019050818103600083015261091e816108e2565b9050919050565b7f41636365737320616c7265616479206772616e74656400000000000000000000600082015250565b600061095b601683610882565b915061096682610925565b602082019050919050565b6000602082019050818103600083015261098a8161094e565b9050919050565b7f4e487b7100000000000000000000000000000000000000000000000000000000600052601160045260246000fd5b60006109cb826107a1565b91506109d6836107a1565b9250827fffffffffffffffffffffffffffffffffffffffffffffffffffffffffffffffff03821115610a0b57610a0a610991565b5b828201905092915050565b7f416363657373206e6f7420666f756e6400000000000000000000000000000000600082015250565b6000610a4c601083610882565b9150610a5782610a16565b602082019050919050565b60006020820190508181036000830152610a7b81610a3f565b9050919050565b7f696e646578206f7574206f6620626f756e640000000000000000000000000000600082015250565b6000610ab8601283610882565b9150610ac382610a82565b602082019050919050565b60006020820190508181036000830152610ae781610aab565b9050919050565b7f4e487b7100000000000000000000000000000000000000000000000000000000600052603260045260246000fdfea2646970667358221220d7bc223a9d8ace517c595c97954046d28af43c35b6fb044efd8b6a302edaf2a964736f6c634300080d0033a2646970667358221220921fc123d864633bfa902283e7277c7fc073f0a14f60cea5eaf9cb2a5cbc3ee964736f6c634300080d0033",
  "immutableReferences": {},
  "source": "// SPDX-License-Identifier: MIT\r\npragma solidity ^0.8.13;\r\n\r\n// Contract template to be created by the factory\r\ncontract BonfireUserContract {\r\n    address public owner;\r\n    \r\n    mapping(bytes32 => mapping(address => bool)) public idToAccess; // CID -> whitelisted addresses\r\n    bytes32[] public cids;\r\n    uint256 public cidCounter;\r\n\r\n    constructor(address _owner) {\r\n        owner = _owner;\r\n        cidCounter = 0;\r\n    }\r\n    \r\n    function grantAccess(bytes32 cid, address allowedAddress) external onlyOwner {\r\n        require(idToAccess[cid][allowedAddress] == false, \"Access already granted\");\r\n\r\n        idToAccess[cid][allowedAddress] = true;\r\n        cids.push(cid);\r\n        cidCounter += 1;\r\n    }\r\n    \r\n    function revokeAccess(bytes32 cid, address allowedAddress) external onlyOwner {\r\n        require(idToAccess[cid][allowedAddress] == true, \"Access not found\");\r\n\r\n        idToAccess[cid][allowedAddress] = false;\r\n    }\r\n\r\n    function checkAccess(bytes32 cid, address allowedAddress)  external view returns (bool) {\r\n        return idToAccess[cid][allowedAddress];\r\n    }\r\n\r\n    function getCID(uint256 index) external view returns (bytes32) {\r\n        require(index < cidCounter, \"index out of bound\");\r\n        return cids[index];\r\n    }\r\n    \r\n    modifier onlyOwner() {\r\n        require(msg.sender == owner, \"Only the owner can call this function\");\r\n        _;\r\n    }\r\n}\r\n\r\n\r\n// Factory contract\r\ncontract BonfireFactory {\r\n    mapping(address => address) public userToContract;\r\n    \r\n    event ContractCreated(address indexed user, address contractAddress);\r\n\r\n    function createContract() external {\r\n        require(userToContract[msg.sender] == address(0), \"Contract already created\");\r\n\r\n        BonfireUserContract newContract = new BonfireUserContract(msg.sender);\r\n        userToContract[msg.sender] = address(newContract);\r\n\r\n        emit ContractCreated(msg.sender, address(newContract));\r\n    }\r\n\r\n    function getUserContract(address user) external view returns (address) {\r\n        return userToContract[user];\r\n    }\r\n}",
  "sourcePath": "C:\\Users\\samue\\Desktop\\bonfire-smart-contracts\\contracts\\BonfireContracts.sol",
  "compiler": {
    "name": "solc",
    "version": "0.8.13+commit.abaa5c0e.Emscripten.clang"
  },
  "schemaVersion": "3.4.15",
  "updatedAt": "2023-08-21T00:12:56.834Z",
  "devdoc": {
    "kind": "dev",
    "methods": {},
    "version": 1
  },
  "userdoc": {
    "kind": "user",
    "methods": {},
    "version": 1
  }
}