{
  "contractName": "BonfireApp",
  "abi": [
    {
      "inputs": [
        {
          "internalType": "address",
          "name": "_address",
          "type": "address"
        },
        {
          "internalType": "enum BonfireApp.AccessLevel",
          "name": "_accessLevel",
          "type": "uint8"
        }
      ],
      "name": "getAllowedRequestersForOwner",
      "outputs": [
        {
          "internalType": "address[]",
          "name": "",
          "type": "address[]"
        }
      ],
      "stateMutability": "view",
      "type": "function"
    },
    {
      "inputs": [
        {
          "internalType": "address",
          "name": "_address",
          "type": "address"
        },
        {
          "internalType": "enum BonfireApp.AccessLevel",
          "name": "_accessLevel",
          "type": "uint8"
        }
      ],
      "name": "getAllowedOwnersForRequester",
      "outputs": [
        {
          "internalType": "address[]",
          "name": "",
          "type": "address[]"
        }
      ],
      "stateMutability": "view",
      "type": "function"
    },
    {
      "inputs": [
        {
          "internalType": "address",
          "name": "_owner",
          "type": "address"
        },
        {
          "internalType": "address",
          "name": "_requester",
          "type": "address"
        }
      ],
      "name": "checkPermission",
      "outputs": [
        {
          "internalType": "enum BonfireApp.AccessLevel",
          "name": "",
          "type": "uint8"
        }
      ],
      "stateMutability": "view",
      "type": "function"
    },
    {
      "inputs": [
        {
          "internalType": "address",
          "name": "_requester",
          "type": "address"
        },
        {
          "internalType": "enum BonfireApp.AccessLevel",
          "name": "_accessLevel",
          "type": "uint8"
        }
      ],
      "name": "addAccess",
      "outputs": [],
      "stateMutability": "nonpayable",
      "type": "function"
    },
    {
      "inputs": [
        {
          "internalType": "address",
          "name": "_requester",
          "type": "address"
        }
      ],
      "name": "deleteAccess",
      "outputs": [],
      "stateMutability": "nonpayable",
      "type": "function"
    }
  ],
  "bytecode": "0x608060405234801561001057600080fd5b5061133e806100206000396000f3fe608060405234801561001057600080fd5b50600436106100575760003560e01c8063081e6d531461005c5780631a160fe914610078578063602c9296146100a8578063cbae719f146100d8578063f96dbb3014610108575b600080fd5b61007660048036038101906100719190610f42565b610124565b005b610092600480360381019061008d9190610f6f565b610276565b60405161009f9190611026565b60405180910390f35b6100c260048036038101906100bd9190611066565b61030c565b6040516100cf9190611164565b60405180910390f35b6100f260048036038101906100ed9190611066565b610637565b6040516100ff9190611164565b60405180910390f35b610122600480360381019061011d9190611066565b610963565b005b60008060003373ffffffffffffffffffffffffffffffffffffffff1673ffffffffffffffffffffffffffffffffffffffff16815260200190815260200160002060008373ffffffffffffffffffffffffffffffffffffffff1673ffffffffffffffffffffffffffffffffffffffff16815260200190815260200160002060000160006101000a81548160ff021916908360028111156101c6576101c5610faf565b5b02179055506000600260008373ffffffffffffffffffffffffffffffffffffffff1673ffffffffffffffffffffffffffffffffffffffff16815260200190815260200160002060003373ffffffffffffffffffffffffffffffffffffffff1673ffffffffffffffffffffffffffffffffffffffff16815260200190815260200160002060000160006101000a81548160ff0219169083600281111561026e5761026d610faf565b5b021790555050565b60008060008473ffffffffffffffffffffffffffffffffffffffff1673ffffffffffffffffffffffffffffffffffffffff16815260200190815260200160002060008373ffffffffffffffffffffffffffffffffffffffff1673ffffffffffffffffffffffffffffffffffffffff16815260200190815260200160002060000160009054906101000a900460ff16905092915050565b6060816000600281111561032357610322610faf565b5b81600281111561033657610335610faf565b5b118015610367575060028081111561035157610350610faf565b5b81600281111561036457610363610faf565b5b11155b6103a6576040517f08c379a000000000000000000000000000000000000000000000000000000000815260040161039d90611209565b60405180910390fd5b6000600160008673ffffffffffffffffffffffffffffffffffffffff1673ffffffffffffffffffffffffffffffffffffffff16815260200190815260200160002080548060200260200160405190810160405280929190818152602001828054801561046757602002820191906000526020600020905b8160009054906101000a900473ffffffffffffffffffffffffffffffffffffffff1673ffffffffffffffffffffffffffffffffffffffff168152602001906001019080831161041d575b505050505090506000815167ffffffffffffffff81111561048b5761048a611229565b5b6040519080825280602002602001820160405280156104b95781602001602082028036833780820191505090505b5090506000805b83518110156106295760008060008a73ffffffffffffffffffffffffffffffffffffffff1673ffffffffffffffffffffffffffffffffffffffff168152602001908152602001600020600086848151811061051e5761051d611258565b5b602002602001015173ffffffffffffffffffffffffffffffffffffffff1673ffffffffffffffffffffffffffffffffffffffff16815260200190815260200160002060000160009054906101000a900460ff16905087600281111561058657610585610faf565b5b81600281111561059957610598610faf565b5b10610615578482815181106105b1576105b0611258565b5b60200260200101518484815181106105cc576105cb611258565b5b602002602001019073ffffffffffffffffffffffffffffffffffffffff16908173ffffffffffffffffffffffffffffffffffffffff16815250508280610611906112c0565b9350505b508080610621906112c0565b9150506104c0565b508194505050505092915050565b6060816000600281111561064e5761064d610faf565b5b81600281111561066157610660610faf565b5b118015610692575060028081111561067c5761067b610faf565b5b81600281111561068f5761068e610faf565b5b11155b6106d1576040517f08c379a00000000000000000000000000000000000000000000000000000000081526004016106c890611209565b60405180910390fd5b6000600360008673ffffffffffffffffffffffffffffffffffffffff1673ffffffffffffffffffffffffffffffffffffffff16815260200190815260200160002080548060200260200160405190810160405280929190818152602001828054801561079257602002820191906000526020600020905b8160009054906101000a900473ffffffffffffffffffffffffffffffffffffffff1673ffffffffffffffffffffffffffffffffffffffff1681526020019060010190808311610748575b505050505090506000815167ffffffffffffffff8111156107b6576107b5611229565b5b6040519080825280602002602001820160405280156107e45781602001602082028036833780820191505090505b5090506000805b8351811015610955576000600260008a73ffffffffffffffffffffffffffffffffffffffff1673ffffffffffffffffffffffffffffffffffffffff168152602001908152602001600020600086848151811061084a57610849611258565b5b602002602001015173ffffffffffffffffffffffffffffffffffffffff1673ffffffffffffffffffffffffffffffffffffffff16815260200190815260200160002060000160009054906101000a900460ff1690508760028111156108b2576108b1610faf565b5b8160028111156108c5576108c4610faf565b5b10610941578482815181106108dd576108dc611258565b5b60200260200101518484815181106108f8576108f7611258565b5b602002602001019073ffffffffffffffffffffffffffffffffffffffff16908173ffffffffffffffffffffffffffffffffffffffff1681525050828061093d906112c0565b9350505b50808061094d906112c0565b9150506107eb565b508194505050505092915050565b806000600281111561097857610977610faf565b5b81600281111561098b5761098a610faf565b5b1180156109bc57506002808111156109a6576109a5610faf565b5b8160028111156109b9576109b8610faf565b5b11155b6109fb576040517f08c379a00000000000000000000000000000000000000000000000000000000081526004016109f290611209565b60405180910390fd5b6000803373ffffffffffffffffffffffffffffffffffffffff1673ffffffffffffffffffffffffffffffffffffffff16815260200190815260200160002060008473ffffffffffffffffffffffffffffffffffffffff1673ffffffffffffffffffffffffffffffffffffffff16815260200190815260200160002060000160019054906101000a900460ff16610b2c57600160003373ffffffffffffffffffffffffffffffffffffffff1673ffffffffffffffffffffffffffffffffffffffff168152602001908152602001600020839080600181540180825580915050600190039060005260206000200160009091909190916101000a81548173ffffffffffffffffffffffffffffffffffffffff021916908373ffffffffffffffffffffffffffffffffffffffff1602179055505b600260008473ffffffffffffffffffffffffffffffffffffffff1673ffffffffffffffffffffffffffffffffffffffff16815260200190815260200160002060003373ffffffffffffffffffffffffffffffffffffffff1673ffffffffffffffffffffffffffffffffffffffff16815260200190815260200160002060000160019054906101000a900460ff16610c5e57600360008473ffffffffffffffffffffffffffffffffffffffff1673ffffffffffffffffffffffffffffffffffffffff168152602001908152602001600020339080600181540180825580915050600190039060005260206000200160009091909190916101000a81548173ffffffffffffffffffffffffffffffffffffffff021916908373ffffffffffffffffffffffffffffffffffffffff1602179055505b816000803373ffffffffffffffffffffffffffffffffffffffff1673ffffffffffffffffffffffffffffffffffffffff16815260200190815260200160002060008573ffffffffffffffffffffffffffffffffffffffff1673ffffffffffffffffffffffffffffffffffffffff16815260200190815260200160002060000160006101000a81548160ff02191690836002811115610cff57610cfe610faf565b5b021790555060016000803373ffffffffffffffffffffffffffffffffffffffff1673ffffffffffffffffffffffffffffffffffffffff16815260200190815260200160002060008573ffffffffffffffffffffffffffffffffffffffff1673ffffffffffffffffffffffffffffffffffffffff16815260200190815260200160002060000160016101000a81548160ff02191690831515021790555081600260008573ffffffffffffffffffffffffffffffffffffffff1673ffffffffffffffffffffffffffffffffffffffff16815260200190815260200160002060003373ffffffffffffffffffffffffffffffffffffffff1673ffffffffffffffffffffffffffffffffffffffff16815260200190815260200160002060000160006101000a81548160ff02191690836002811115610e3d57610e3c610faf565b5b02179055506001600260008573ffffffffffffffffffffffffffffffffffffffff1673ffffffffffffffffffffffffffffffffffffffff16815260200190815260200160002060003373ffffffffffffffffffffffffffffffffffffffff1673ffffffffffffffffffffffffffffffffffffffff16815260200190815260200160002060000160016101000a81548160ff021916908315150217905550505050565b600080fd5b600073ffffffffffffffffffffffffffffffffffffffff82169050919050565b6000610f0f82610ee4565b9050919050565b610f1f81610f04565b8114610f2a57600080fd5b50565b600081359050610f3c81610f16565b92915050565b600060208284031215610f5857610f57610edf565b5b6000610f6684828501610f2d565b91505092915050565b60008060408385031215610f8657610f85610edf565b5b6000610f9485828601610f2d565b9250506020610fa585828601610f2d565b9150509250929050565b7f4e487b7100000000000000000000000000000000000000000000000000000000600052602160045260246000fd5b60038110610fef57610fee610faf565b5b50565b600081905061100082610fde565b919050565b600061101082610ff2565b9050919050565b61102081611005565b82525050565b600060208201905061103b6000830184611017565b92915050565b6003811061104e57600080fd5b50565b60008135905061106081611041565b92915050565b6000806040838503121561107d5761107c610edf565b5b600061108b85828601610f2d565b925050602061109c85828601611051565b9150509250929050565b600081519050919050565b600082825260208201905092915050565b6000819050602082019050919050565b6110db81610f04565b82525050565b60006110ed83836110d2565b60208301905092915050565b6000602082019050919050565b6000611111826110a6565b61111b81856110b1565b9350611126836110c2565b8060005b8381101561115757815161113e88826110e1565b9750611149836110f9565b92505060018101905061112a565b5085935050505092915050565b6000602082019050818103600083015261117e8184611106565b905092915050565b600082825260208201905092915050565b7f506c656173652073657420746f205245414420283129206f7220524541445f5760008201527f5249544520283229000000000000000000000000000000000000000000000000602082015250565b60006111f3602883611186565b91506111fe82611197565b604082019050919050565b60006020820190508181036000830152611222816111e6565b9050919050565b7f4e487b7100000000000000000000000000000000000000000000000000000000600052604160045260246000fd5b7f4e487b7100000000000000000000000000000000000000000000000000000000600052603260045260246000fd5b7f4e487b7100000000000000000000000000000000000000000000000000000000600052601160045260246000fd5b6000819050919050565b60006112cb826112b6565b91507fffffffffffffffffffffffffffffffffffffffffffffffffffffffffffffffff82036112fd576112fc611287565b5b60018201905091905056fea264697066735822122065f9e2ae28afa045b3ad6a9936613147fd7f9f23fb67c52ab82af6596afb16e464736f6c634300080d0033",
  "immutableReferences": {},
  "source": "// SPDX-License-Identifier: MIT\r\n// Tells the Solidity compiler to compile only from v0.8.13 to v0.9.0\r\npragma solidity ^0.8.13;\r\n\r\ncontract BonfireApp {\r\n    enum AccessLevel {\r\n        NONE,\r\n        READ,\r\n        READ_WRITE\r\n    }\r\n\r\n    struct MapValue {\r\n        AccessLevel value;\r\n        bool isLoaded;\r\n    }\r\n\r\n    // shows the addresses that the key allows access to\r\n    mapping(address => mapping(address => MapValue)) requestersForOwner;\r\n    mapping(address => address[]) requesterForOwnerKeys;\r\n\r\n    // show the addresses that the key is allowed access to\r\n    mapping(address => mapping(address => MapValue)) ownersForRequester;\r\n    mapping(address => address[]) ownersForRequesterKeys;\r\n\r\n    modifier isElevatedPermission(AccessLevel _accessLevel) {\r\n        require(\r\n            _accessLevel > AccessLevel.NONE &&\r\n                _accessLevel <= AccessLevel.READ_WRITE,\r\n            \"Please set to READ (1) or READ_WRITE (2)\"\r\n        );\r\n\r\n        _;\r\n    }\r\n\r\n    function getAllowedRequestersForOwner(\r\n        address _address,\r\n        AccessLevel _accessLevel\r\n    )\r\n        public\r\n        view\r\n        isElevatedPermission(_accessLevel)\r\n        returns (address[] memory)\r\n    {\r\n        address[] memory allowedRequesters = requesterForOwnerKeys[_address];\r\n        address[] memory result = new address[](allowedRequesters.length);\r\n        uint resultCounter = 0;\r\n        for (uint i = 0; i < allowedRequesters.length; i++) {\r\n            AccessLevel currentAccessLevel = requestersForOwner[_address][\r\n                allowedRequesters[i]\r\n            ].value;\r\n            if (currentAccessLevel >= _accessLevel) {\r\n                result[resultCounter] = allowedRequesters[i];\r\n                resultCounter++;\r\n            }\r\n        }\r\n\r\n        return result;\r\n    }\r\n\r\n    function getAllowedOwnersForRequester(\r\n        address _address,\r\n        AccessLevel _accessLevel\r\n    )\r\n        public\r\n        view\r\n        isElevatedPermission(_accessLevel)\r\n        returns (address[] memory)\r\n    {\r\n        address[] memory allowedAccessOwners = ownersForRequesterKeys[_address];\r\n        address[] memory result = new address[](allowedAccessOwners.length);\r\n        uint resultCounter = 0;\r\n        for (uint i = 0; i < allowedAccessOwners.length; i++) {\r\n            AccessLevel currentAccessLevel = ownersForRequester[_address][\r\n                allowedAccessOwners[i]\r\n            ].value;\r\n            if (currentAccessLevel >= _accessLevel) {\r\n                result[resultCounter] = allowedAccessOwners[i];\r\n                resultCounter++;\r\n            }\r\n        }\r\n\r\n        return result;\r\n    }\r\n\r\n    function checkPermission(\r\n        address _owner,\r\n        address _requester\r\n    ) public view returns (AccessLevel) {\r\n        return requestersForOwner[_owner][_requester].value;\r\n    }\r\n\r\n    function addAccess(\r\n        address _requester,\r\n        AccessLevel _accessLevel\r\n    ) public isElevatedPermission(_accessLevel) {\r\n        if (!requestersForOwner[msg.sender][_requester].isLoaded) {\r\n            requesterForOwnerKeys[msg.sender].push(_requester);\r\n        }\r\n\r\n        if (!ownersForRequester[_requester][msg.sender].isLoaded) {\r\n            ownersForRequesterKeys[_requester].push(msg.sender);\r\n        }\r\n\r\n        requestersForOwner[msg.sender][_requester].value = _accessLevel;\r\n        requestersForOwner[msg.sender][_requester].isLoaded = true;\r\n        ownersForRequester[_requester][msg.sender].value = _accessLevel;\r\n        ownersForRequester[_requester][msg.sender].isLoaded = true;\r\n    }\r\n\r\n    function deleteAccess(address _requester) public {\r\n        requestersForOwner[msg.sender][_requester].value = AccessLevel.NONE;\r\n        ownersForRequester[_requester][msg.sender].value = AccessLevel.NONE;\r\n    }\r\n}\r\n",
  "sourcePath": "C:\\Users\\samue\\Desktop\\bonfire-smart-contracts\\contracts\\BonfireApp.sol",
  "compiler": {
    "name": "solc",
    "version": "0.8.13+commit.abaa5c0e.Emscripten.clang"
  },
  "schemaVersion": "3.4.15",
  "updatedAt": "2023-08-21T00:12:56.825Z",
  "devdoc": {
    "kind": "dev",
    "methods": {},
    "version": 1
  },
  "userdoc": {
    "kind": "user",
    "methods": {},
    "version": 1
  }
}