{
  "contractName": "BonfireApp",
  "abi": [
    {
      "inputs": [
        {
          "internalType": "address",
          "name": "_owner",
          "type": "address"
        },
        {
          "internalType": "address",
          "name": "_requester",
          "type": "address"
        }
      ],
      "name": "checkPermission",
      "outputs": [
        {
          "internalType": "bool",
          "name": "",
          "type": "bool"
        }
      ],
      "stateMutability": "view",
      "type": "function",
      "constant": true
    },
    {
      "inputs": [
        {
          "internalType": "address",
          "name": "_requester",
          "type": "address"
        }
      ],
      "name": "addAccess",
      "outputs": [],
      "stateMutability": "nonpayable",
      "type": "function"
    },
    {
      "inputs": [
        {
          "internalType": "address",
          "name": "_requester",
          "type": "address"
        }
      ],
      "name": "deleteAccess",
      "outputs": [],
      "stateMutability": "nonpayable",
      "type": "function"
    }
  ],
  "bytecode": "0x608060405234801561001057600080fd5b506104d4806100206000396000f3fe608060405234801561001057600080fd5b50600436106100415760003560e01c8063081e6d53146100465780631a160fe914610062578063a118f24914610092575b600080fd5b610060600480360381019061005b91906103fb565b6100ae565b005b61007c60048036038101906100779190610428565b6101da565b6040516100899190610483565b60405180910390f35b6100ac60048036038101906100a791906103fb565b61026d565b005b60008060003373ffffffffffffffffffffffffffffffffffffffff1673ffffffffffffffffffffffffffffffffffffffff16815260200190815260200160002060008373ffffffffffffffffffffffffffffffffffffffff1673ffffffffffffffffffffffffffffffffffffffff16815260200190815260200160002060006101000a81548160ff0219169083151502179055506000600160008373ffffffffffffffffffffffffffffffffffffffff1673ffffffffffffffffffffffffffffffffffffffff16815260200190815260200160002060003373ffffffffffffffffffffffffffffffffffffffff1673ffffffffffffffffffffffffffffffffffffffff16815260200190815260200160002060006101000a81548160ff02191690831515021790555050565b60008060008473ffffffffffffffffffffffffffffffffffffffff1673ffffffffffffffffffffffffffffffffffffffff16815260200190815260200160002060008373ffffffffffffffffffffffffffffffffffffffff1673ffffffffffffffffffffffffffffffffffffffff16815260200190815260200160002060009054906101000a900460ff16905092915050565b60016000803373ffffffffffffffffffffffffffffffffffffffff1673ffffffffffffffffffffffffffffffffffffffff16815260200190815260200160002060008373ffffffffffffffffffffffffffffffffffffffff1673ffffffffffffffffffffffffffffffffffffffff16815260200190815260200160002060006101000a81548160ff02191690831515021790555060018060008373ffffffffffffffffffffffffffffffffffffffff1673ffffffffffffffffffffffffffffffffffffffff16815260200190815260200160002060003373ffffffffffffffffffffffffffffffffffffffff1673ffffffffffffffffffffffffffffffffffffffff16815260200190815260200160002060006101000a81548160ff02191690831515021790555050565b600080fd5b600073ffffffffffffffffffffffffffffffffffffffff82169050919050565b60006103c88261039d565b9050919050565b6103d8816103bd565b81146103e357600080fd5b50565b6000813590506103f5816103cf565b92915050565b60006020828403121561041157610410610398565b5b600061041f848285016103e6565b91505092915050565b6000806040838503121561043f5761043e610398565b5b600061044d858286016103e6565b925050602061045e858286016103e6565b9150509250929050565b60008115159050919050565b61047d81610468565b82525050565b60006020820190506104986000830184610474565b9291505056fea26469706673582212203aa85a1dba7e2d664d163cce328cbf21c5c3ec328e0407419cee212a2c0e579164736f6c634300080d0033",
  "immutableReferences": {},
  "source": "// SPDX-License-Identifier: MIT\n// Tells the Solidity compiler to compile only from v0.8.13 to v0.9.0\npragma solidity ^0.8.13;\n\ncontract BonfireApp {\n    // shows the addresses that the key allows access to\n    mapping(address => mapping(address => bool)) allowedWallets;\n\n    // show the addresses that the key is allowed access to\n    mapping(address => mapping(address => bool)) userWhitelistedWallets;\n\n    // function getWhitelistForAddress(\n    //     address _address\n    // ) public view returns (address[] memory) {}\n\n    function checkPermission(\n        address _owner,\n        address _requester\n    ) public view returns (bool) {\n        return allowedWallets[_owner][_requester];\n    }\n\n    function addAccess(address _requester) public {\n        allowedWallets[msg.sender][_requester] = true;\n        userWhitelistedWallets[_requester][msg.sender] = true;\n    }\n\n    function deleteAccess(address _requester) public {\n        allowedWallets[msg.sender][_requester] = false;\n        userWhitelistedWallets[_requester][msg.sender] = false;\n    }\n}\n",
  "sourcePath": "/Users/richard/dev/bonfire-app/bonfire-smart-contracts/contracts/BonfireApp.sol",
  "compiler": {
    "name": "solc",
    "version": "0.8.13+commit.abaa5c0e.Emscripten.clang"
  },
  "schemaVersion": "3.4.15",
  "updatedAt": "2023-08-13T11:41:17.298Z",
  "networkType": "ethereum",
  "devdoc": {
    "kind": "dev",
    "methods": {},
    "version": 1
  },
  "userdoc": {
    "kind": "user",
    "methods": {},
    "version": 1
  }
}